:100000000C9433000C940B050C9438050C94640587
:100010000C9450000C945B070C9450000C9450000E
:100020000C9450000C9450000C9450000C94500010
:100030000C9450000C9450000C9450000C94500000
:100040000C9450000C9450000C9450000C945000F0
:100050000C9450000C020F021202150218021B022F
:100060001E022102240211241FBECFE5D8E0DEBF0C
:10007000CDBF10E0A0E6B0E0E0E2F4E102C0059000
:100080000D92A036B107D9F720E0A0E6B0E001C09C
:100090001D92AC37B207E1F70E94CD020C940E0A14
:1000A0000C94000060E082E40E943A02811157C083
:1000B00063E082E40E943A02811153C064E082E46A
:1000C0000E943A0281114FC062E084E40E9436022D
:1000D00081114BC063E084E40E943602811147C065
:1000E00060E081E40E943A02811143C062E081E451
:1000F0000E943A0281113FC065E081E40E943A0209
:1001000081113BC067E081E40E943A02811137C04F
:100110000E944602811135C00E946C0480E00E945A
:100120005504811130C081E00E94550481112DC019
:1001300068EB72E00E94DC04811129C060E00E943B
:100140006E04811126C060E081E00E946E0481117E
:1001500022C00E944107882301F186E0089581E0D2
:10016000089581E0089581E0089582E0089582E095
:10017000089581E0089581E0089581E0089581E087
:10018000089585E0089587E0089587E0089587E061
:10019000089587E0089587E0089580E00895CF925C
:1001A000DF92EF92FF9220E030E048EC52E40E94B0
:1001B0003F08609370007093710080937200909379
:1001C000730020E030E040E853E40E949B096B019B
:1001D0007C01609378007093790080937A0090930B
:1001E0007B009B01AC0160E070E080E893E40E943A
:1001F000B6076093740070937500809376009093B7
:100200007700C701B6010E94840681111AC060E020
:1002100082E40E943E02811116C0609174007091C8
:10022000750080917600909177000E94840681117C
:100230000CC060E082E40E944202882341F086E024
:1002400007C086E005C086E003C086E001C080E00C
:10025000FF90EF90DF90CF90089560E081E40E94DE
:100260004202811120C085E89EE1A0E0B0E08093C9
:100270006B0090936C00A0936D00B0936E000E9491
:100280006C02811112C065E081E40E943E0281117E
:100290000EC060E070E080EF91E40E94CF00882300
:1002A00039F084E0089581E0089585E0089581E0C3
:1002B000089562E081E40E944202811122C065E05B
:1002C00081E40E94420281111EC067E081E40E9425
:1002D000420281111AC060E081E40E943E02811155
:1002E00016C081EA97E0A0E0B0E080936B009093A5
:1002F0006C00A0936D00B0936E000E94B80280E085
:10030000089581E0089581E0089581E0089581E0F5
:10031000089560E081E40E944202811120C087ECD0
:100320009DE2A0E0B0E080936B0090936C00A093FE
:100330006D00B0936E000E946C02811112C062E0E9
:1003400081E40E943E0281110EC060E070E088E40A
:1003500092E40E94CF00882339F084E0089581E080
:10036000089584E0089581E0089583E49FE0A0E08B
:10037000B0E080936B0090936C00A0936D00B093FD
:100380006E000E94B802089560E081E40E9442027B
:10039000811120C088E399E3A0E0B0E080936B0076
:1003A00090936C00A0936D00B0936E000E94920237
:1003B000811112C067E081E40E943E0281110EC0EB
:1003C00060E070E080E291E40E94CF00882339F081
:1003D00084E0089581E0089585E0089581E008951E
:1003E00080916000813099F563E082E40E943E02D2
:1003F00081113AC064E082E40E944202811134C05B
:10040000E0916F008E2F90E08930910548F7FC0154
:10041000E65DFF4F0C94080A0E94B501E1CF0E94EF
:100420008901DECF0E945901DBCF0E94C401D8CFE1
:100430000E945901D5CF0E942D01D2CF0E945901AF
:10044000CFCF0E94C401CCCF0E945901C9CF63E035
:1004500082E40E944202811107C064E082E40E94AB
:100460003E02882309F4BCCF81E0089540E00E9459
:100470004603089541E00E944603089541E00E942A
:10048000C303089540E00E94C303089541E060E083
:1004900083E40E944603811117C041E061E083E4D8
:1004A0000E944603811112C041E062E083E40E9491
:1004B000460381110DC041E063E083E40E944603DE
:1004C000882341F081E0089581E0089581E0089556
:1004D00081E0089580E0089540E060E083E40E94B8
:1004E000C303811117C041E061E083E40E94C303AC
:1004F000811112C040E062E083E40E94C3038111D5
:100500000DC041E063E083E40E94C303882341F00F
:1005100082E0089582E0089582E0089582E00895DF
:1005200080E0089541E060E083E40E94C30381110C
:1005300017C040E061E083E40E94C303811112C050
:1005400040E062E083E40E94C30381110DC041E0FA
:1005500063E083E40E94C303882341F083E00895AD
:1005600083E0089583E0089583E0089580E008958E
:1005700040E060E083E40E94C30340E061E083E484
:100580000E94C30340E062E083E40E94C30340E0B2
:1005900063E083E40E94C30308950E9452000E9416
:1005A000F00180E090E008958234A9F018F48134DD
:1005B00031F008958334D9F0843429F108952AB3B1
:1005C00081E090E002C0880F991F6A95E2F780955C
:1005D00082238ABB089527B381E090E002C0880F90
:1005E000991F6A95E2F78095822387BB089524B30B
:1005F00081E090E002C0880F991F6A95E2F780952C
:10060000822384BB089521B381E090E002C0880F6B
:10061000991F6A95E2F78095822381BB0895823401
:10062000A1F018F4813431F008958334C9F0843492
:1006300011F108952AB381E090E002C0880F991F5C
:100640006A95E2F7822B8ABB089527B381E090E098
:1006500002C0880F991F6A95E2F7822B87BB089525
:1006600024B381E090E002C0880F991F6A95E2F7F9
:10067000822B84BB089521B381E090E002C0880FF3
:10068000991F6A95E2F7822B81BB0895683008F0C4
:100690006EC0823419F118F4813439F06AC08334A1
:1006A000B1F1843409F44BC064C0411104C00E940C
:1006B000D40280E00895413009F05DC09BB321E091
:1006C00030E0062E02C0220F331F0A94E2F7209575
:1006D00029232BBB0E940F0380E00895411104C021
:1006E0000E94D40280E00895413009F046C098B3DA
:1006F00021E030E0062E02C0220F331F0A94E2F7F9
:100700002095292328BB0E940F0380E00895411102
:1007100004C00E94D40280E00895413081F595B371
:1007200021E030E0062E02C0220F331F0A94E2F7C8
:100730002095292325BB0E940F0380E008954111D5
:1007400004C00E94D40280E008954130D1F492B3F5
:1007500021E030E0062E02C0220F331F0A94E2F798
:100760002095292322BB0E940F0380E0089582E098
:10077000089581E0089583E0089583E0089583E07B
:10078000089583E00895683008F083C0823449F109
:1007900018F4813441F07FC0833409F440C08434BC
:1007A00009F45AC078C041110DC02BB381E090E02C
:1007B00002C0880F991F6A95E2F7809582238BBB50
:1007C00080E00895413009F068C02BB381E090E0EB
:1007D00002C0880F991F6A95E2F7822B8BBB80E0DD
:1007E000089541110DC028B381E090E002C0880F48
:1007F000991F6A95E2F78095822388BB80E008956F
:10080000413009F04CC028B381E090E002C0880F6D
:10081000991F6A95E2F7822B88BB80E00895411109
:100820000DC025B381E090E002C0880F991F6A9542
:10083000E2F78095822385BB80E00895413089F5F9
:1008400025B381E090E002C0880F991F6A95E2F716
:10085000822B85BB80E0089541110DC022B381E059
:1008600090E002C0880F991F6A95E2F78095822375
:1008700082BB80E008954130B1F422B381E090E082
:1008800002C0880F991F6A95E2F7822B82BB80E035
:10089000089582E0089581E0089584E0089584E059
:1008A000089584E0089584E00895813049F018F0B7
:1008B000823059F00FC08BB780648BBF80E0089501
:1008C0008BB780688BBF80E008958BB780628BBF49
:1008D00080E0089581E0089578940895813069F169
:1008E00020F0823009F451C05FC0613071F028F00F
:1008F000623099F06330C9F059C085B78E7F85BFEB
:1009000085B78D7F85BF80E0089585B7816085BFFD
:1009100085B78D7F85BF80E0089585B78E7F85BFC1
:1009200085B7826085BF80E0089585B7816085BF07
:1009300085B7826085BF80E00895613071F028F04E
:10094000623099F06330C9F033C085B78B7F85BFC3
:1009500085B7877F85BF80E0089585B7846085BFB0
:1009600085B7877F85BF80E0089585B78B7F85BF7A
:1009700085B7886085BF80E0089585B7846085BFAE
:1009800085B7886085BF80E00895623019F06330D4
:1009900031F010C084B78F7B84BF80E0089584B7A6
:1009A000806484BF80E0089582E0089582E0089525
:1009B00082E0089582E00895813051F018F082308D
:1009C00069F012C0709366006093650080E008953E
:1009D000709364006093630080E0089570936200F8
:1009E0006093610080E0089583E0089540E060E056
:1009F00081E40E94C30340E062E081E40E94C303FB
:100A000040E065E081E40E94C30340E067E081E4E8
:100A10000E94C30308951F920F920FB60F921124E4
:100A20002F933F934F935F936F937F938F939F93F6
:100A3000AF93BF93EF93FF9310926000E091650036
:100A4000F0916600309719F009950E94F604FF9125
:100A5000EF91BF91AF919F918F917F916F915F9136
:100A60004F913F912F910F900FBE0F901F901895AF
:100A70001F920F920FB60F9211242F933F934F9313
:100A80005F936F937F938F939F93AF93BF93EF93F6
:100A9000FF93E0916300F0916400309709F00995AD
:100AA00081E080936000FF91EF91BF91AF919F91A2
:100AB0008F917F916F915F914F913F912F910F9007
:100AC0000FBE0F901F9018951F920F920FB60F92A6
:100AD00011242F933F934F935F936F937F938F9343
:100AE0009F93AF93BF93EF93FF93E0916100F091D9
:100AF0006200309709F00995FF91EF91BF91AF9196
:100B00009F918F917F916F915F914F913F912F9125
:100B10000F900FBE0F901F901895811108C083B7DA
:100B20008F7B83BF83B7877F83BF80E00895813049
:100B300041F483B78F7B83BF83B7886083BF80E036
:100B40000895823041F483B7806483BF83B7877F81
:100B500083BF80E00895833041F483B7806483BF0E
:100B600083B7886083BF80E0089581E00895811194
:100B70000BC083B78E7F83BF83B78D7F83BF83B75F
:100B80008B7F83BF80E00895813059F483B7816003
:100B900083BF83B78D7F83BF83B78B7F83BF80E0A5
:100BA0000895823059F483B78E7F83BF83B7826004
:100BB00083BF83B78B7F83BF80E00895833059F470
:100BC00083B7816083BF83B7826083BF83B78B7F26
:100BD00083BF80E00895843059F483B78E7F83BF4C
:100BE00083B78D7F83BF83B7846083BF80E0089520
:100BF000853059F483B7816083BF83B78D7F83BF0E
:100C000083B7846083BF80E00895863059F483B74A
:100C10008E7F83BF83B7826083BF83B7846083BFC7
:100C200080E00895873059F483B7816083BF83B72C
:100C3000826083BF83B7846083BF80E0089582E0D1
:100C400008958F929F92AF92BF92CF92DF92EF92D0
:100C5000FF924B015C0120E030E0A9010E9496095F
:100C6000181694F01EC008B600FEFDCF88B781604C
:100C700088BF20E030E040E85FE3C701B6010E9492
:100C8000B7076B017C0103C0C12CD12C7601A501F3
:100C90009401C701B6010E943A08882324F380E03A
:100CA0002AC020E030E0A901C501B4010E943A0841
:100CB00018169CF485E01FC008B600FEFDCF88B76B
:100CC000816088BF20E030E040E85FE3C701B60103
:100CD0000E94B7076B017C0103C0C12CD12C7601A7
:100CE00020E030E040E85FE3C701B6010E943A0827
:100CF000882314F380E0FF90EF90DF90CF90BF90B7
:100D0000AF909F908F900895CF930E9423080E94E8
:100D1000B108C62F80E00E948D05811114C0C2BFAA
:100D200085E00E94B705811110C060E070E080E8A6
:100D30009FE30E94210681110AC013BE12BE98B71C
:100D4000916098BF05C086E003C086E001C086E0E0
:100D5000CF910895811108C085B58F7B85BD85B57C
:100D6000877F85BD80E00895813041F485B58F7B14
:100D700085BD85B5886085BD80E00895823041F4E9
:100D800085B5806485BD85B5877F85BD80E0089584
:100D9000833041F485B5806485BD85B5886085BDA7
:100DA00080E0089581E0089581110BC085B58E7FA4
:100DB00085BD85B58D7F85BD85B58B7F85BD80E083
:100DC0000895813059F485B5816085BD85B58D7FE5
:100DD00085BD85B58B7F85BD80E00895823059F44F
:100DE00085B58E7F85BD85B5826085BD85B58B7FD8
:100DF00085BD80E00895833059F485B5816085BD57
:100E000085B5826085BD85B58B7F85BD80E0089501
:100E1000843059F485B58E7F85BD85B58D7F85BDC0
:100E200085B5846085BD80E00895843059F485B52A
:100E3000816085BD85B58D7F85BD85B5846085BDA7
:100E400080E00895853059F485B58E7F85BD85B5E0
:100E5000826085BD85B5846085BD80E0089586305B
:100E600059F485B5816085BD85B5826085BD85B540
:100E7000846085BD80E0089582E0089584BD80E0AF
:100E8000089589B7806489BF80E00E94AA06811115
:100E90000CC00E943E0781110AC081E00E94D40666
:100EA000811107C010926000089587E0089587E0DF
:100EB000089587E008951F920F920FB60F921124A4
:100EC0004F935F936F937F938F939F93AF93BF9352
:100ED000809160008130E9F5809167009091680011
:100EE000A0916900B0916A0040916B0050916C0034
:100EF00060916D0070916E0084179507A607B70783
:100F000064F40196A11DB11D809367009093680061
:100F1000A0936900B0936A001CC084179507A607C8
:100F2000B707B9F4452B462B472B99F01092670071
:100F3000109268001092690010926A0080916F0010
:100F4000883020F48F5F80936F0003C081E080932E
:100F50006F00BF91AF919F918F917F916F915F9142
:100F60004F910F900FBE0F901F9018955058BB27B0
:100F7000AA270E94CE070C9444090E94360938F033
:100F80000E943D0920F039F49F3F19F426F40C9497
:100F900033090EF4E095E7FB0C940409E92F0E9455
:100FA000550958F3BA17620773078407950720F0AD
:100FB00079F4A6F50C948F090EF4E0950B2EBA2F58
:100FC000A02D0B01B90190010C01CA01A00111244F
:100FD000FF27591B99F0593F50F4503E68F11A16FB
:100FE000F040A22F232F342F4427585FF3CF46958C
:100FF00037952795A795F0405395C9F77EF41F16AE
:10100000BA0B620B730B840BBAF09150A1F0FF0F77
:10101000BB1F661F771F881FC2F70EC0BA0F621F63
:10102000731F841F48F4879577956795B795F79553
:101030009E3F08F0B0CF9395880F08F09927EE0FE8
:101040009795879508950E94770990F09F3748F407
:10105000911116F40C94900960E070E080E89FE331
:10106000089526F01B16611D711D811D0C940A093F
:101070000C9425090E94E00808F481E008950E947C
:1010800053080C9444090E943D0958F00E94360907
:1010900040F029F45F3F29F00C94040951110C949D
:1010A00090090C9433090E94550968F39923B1F310
:1010B000552391F3951B550BBB27AA27621773077E
:1010C000840738F09F5F5F4F220F331F441FAA1F12
:1010D000A9F335D00E2E3AF0E0E832D091505040CE
:1010E000E695001CCAF72BD0FE2F29D0660F771F7C
:1010F000881FBB1F261737074807AB07B0E809F062
:10110000BB0B802DBF01FF2793585F4F3AF09E3FE6
:10111000510578F00C9404090C9490095F3FE4F3B6
:10112000983ED4F3869577956795B795F7959F5F29
:10113000C9F7880F911D9695879597F90895E1E075
:10114000660F771F881FBB1F621773078407BA07D4
:1011500020F0621B730B840BBA0BEE1F88F7E0952F
:1011600008950E945D0988F09F5798F0B92F99273C
:10117000B751B0F0E1F0660F771F881F991F1AF082
:10118000BA95C9F714C0B13091F00E948F09B1E04F
:1011900008950C948F09672F782F8827B85F39F04E
:1011A000B93FCCF3869577956795B395D9F73EF41B
:1011B00090958095709561957F4F8F4F9F4F0895C3
:1011C000990F0008550FAA0BE0E8FEEF1616170658
:1011D000E807F907C0F012161306E407F50798F0C0
:1011E000621B730B840B950B39F40A2661F0232BD9
:1011F000242B252B21F408950A2609F4A140A69555
:101200008FEF811D811D089597F99F6780E870E039
:1012100060E00895882371F4772321F09850872B9C
:10122000762F07C0662311F499270DC09051862BA5
:1012300070E060E02AF09A95660F771F881FDAF752
:10124000880F9695879597F908959F3F31F09150B3
:1012500020F4879577956795B795880F911D96959A
:10126000879597F908959FEF80EC089500240A94DC
:101270001616170618060906089500240A94121671
:101280001306140605060895092E0394000C11F4A4
:10129000882352F0BB0F40F4BF2B11F460FF04C051
:1012A0006F5F7F4F8F4F9F4F089557FD9058440FAA
:1012B000551F59F05F3F71F04795880F97FB991FB5
:1012C00061F09F3F79F08795089512161306140672
:1012D000551FF2CF4695F1DF08C0161617061806FF
:1012E000991FF1CF869571056105089408950E94B4
:1012F0005D09A0F0BEE7B91788F4BB279F3860F4FA
:101300001616B11D672F782F8827985FF7CF86951F
:1013100077956795B11D93959639C8F30895E8942C
:10132000BB2766277727CB0197F908950E94E0082D
:1013300008F48FEF08950E94AE090C9444090E94AE
:10134000360938F00E943D0920F0952311F00C94E5
:1013500004090C94330911240C9490090E94550936
:1013600070F3959FC1F3950F50E0551F629FF001F8
:10137000729FBB27F00DB11D639FAA27F00DB11D11
:10138000AA1F649F6627B00DA11D661F829F22279A
:10139000B00DA11D621F739FB00DA11D621F839F21
:1013A000A00D611D221F749F3327A00D611D231FF7
:1013B000849F600D211D822F762F6A2F11249F5745
:1013C00050409AF0F1F088234AF0EE0FFF1FBB1F48
:1013D000661F771F881F91505040A9F79E3F510507
:1013E00080F00C9404090C9490095F3FE4F3983E5C
:1013F000D4F3869577956795B795F795E7959F5FB1
:10140000C1F7FE2B880F911D9695879597F9089542
:10141000EE0FFF1F0590F491E02D0994F894FFCF93
:00000001FF
