S017000050726F6A6563745F3457445F4361722E7372656393
S11300000C9433000C9428050C9455050C9481052C
S11300100C9450000C9493070C9450000C945000D2
S11300200C9450000C9450000C9450000C9450000C
S11300300C9450000C9450000C9450000C945000FC
S11300400C9450000C9450000C9450000C945000EC
S11300500C945000FD01000205020A020F02140272
S113006019021F02250211241FBECFE5D8E0DEBF0E
S1130070CDBF10E0A0E6B0E0E0E9F4E102C00590F5
S11300800D92A236B107D9F720E0A2E6B0E001C094
S11300901D92A437B207E1F70E94EA020C94460AC3
S11300A00C94000060E082E40E94540281115AC062
S11300B06091610082E40E945402811155C064E0A1
S11300C082E40E945402811151C062E084E40E94DF
S11300D0500281114DC06091600084E40E9450027E
S11300E0811148C060E081E40E945402811144C03F
S11300F062E081E40E945402811140C065E081E421
S11301000E94540281113CC067E081E40E945402C1
S1130110811138C00E946002811136C00E94890496
S1130120809162000E947204811130C081E00E94BB
S1130130720481112DC065ED72E00E94F9048111F1
S113014029C060E00E948B04811126C060E081E038
S11301500E948B04811122C00E947707882301F139
S113016086E0089581E0089581E0089581E008958E
S113017082E0089582E0089581E0089581E0089581
S113018081E0089581E0089585E0089587E0089569
S113019087E0089587E0089587E0089587E008954B
S11301A080E008958F929F92AF92BF92CF92DF9298
S11301B0EF92FF9220E030E048EC52E40E9477088E
S11301C020E030E040E853E40E94D3096B017C0155
S11301D09B01AC0160E070E080E893E40E94EE07CC
S11301E04B015C01C701B6010E94A106811114C034
S11301F060E082E40E945802811110C0C501B4017C
S11302000E94A10681110CC060E082E40E945C029D
S1130210882341F081E007C086E005C081E003C087
S113022086E001C080E0FF90EF90DF90CF90BF9018
S1130230AF909F908F90089560E081E40E945C02EB
S1130240811120C085E89EE1A0E0B0E080936F00BA
S113025090937000A0937100B09372000E94870283
S1130260811112C065E081E40E94580281110EC020
S113027060E070E080EF91E40E94D200882339F0BE
S113028084E0089581E0089585E0089581E008956B
S113029062E081E40E945C02811122C065E081E495
S11302A00E945C0281111EC067E081E40E945C022E
S11302B081111AC060E081E40E945802811116C0C5
S11302C081EA97E0A0E0B0E080936F009093700023
S11302D0A0937100B09372000E94D50280E008954B
S11302E081E0089581E0089581E0089581E0089512
S11302F060E081E40E945C02811120C087EC9DE2F1
S1130300A0E0B0E080936F0090937000A093710020
S1130310B09372000E948702811112C062E081E4EE
S11303200E94580281110EC060E070E088E492E4FB
S11303300E94D200882339F084E0089581E0089572
S113034085E0089581E0089583E49FE0A0E0B0E0B3
S113035080936F0090937000A0937100B09372002B
S11303600E94D502089560E081E40E945C0281113C
S113037020C088E399E3A0E0B0E080936F009093FD
S11303807000A0937100B09372000E94AE028111BC
S113039012C067E081E40E94580281110EC060E03F
S11303A070E080EA91E40E94D200882339F084E06E
S11303B0089581E0089585E0089581E0089580918D
S11303C06400813009F047C06091610082E40E94BA
S11303D0580281114FC064E082E40E945C028111E2
S11303E04BC0E09173008E2F90E08930910538F76F
S11303F0FC01E65DFF4F0C94400A0E94A401DFCF8C
S11304000E9478018823D9F239C00E9448018823C8
S1130410B1F236C00E94B301882389F233C00E942E
S11304204801882361F230C00E941C01882339F2FC
S11304302DC00E944801882309F4C1CF29C00E941D
S1130440B301882309F4BBCF25C00E944801882347
S113045009F4B5CF21C063E082E40E945C028111FB
S11304601DC064E082E40E945802882309F4A7CFE7
S113047081E0089581E0089581E0089584E008957D
S113048084E0089584E0089584E0089584E0089564
S113049084E0089584E0089584E0089581E0089557
S11304A040E00E946303089541E00E9463030895BD
S11304B041E00E94E003089540E00E94E0030895B3
S11304C041E06091630083E40E946303811117C0DB
S11304D041E061E083E40E946303811112C041E0C2
S11304E062E083E40E94630381110DC041E063E094
S11304F083E40E946303882341F081E0089581E04E
S1130500089581E0089581E0089580E0089540E031
S11305106091630083E40E94E003811117C041E00D
S113052061E083E40E94E003811112C040E062E0D4
S113053083E40E94E00381110DC041E063E083E4A1
S11305400E94E003882341F082E0089582E0089548
S113055082E0089582E0089580E0089541E060918A
S1130560630083E40E94E003811117C040E061E06E
S113057083E40E94E003811112C040E062E083E45E
S11305800E94E00381110DC041E063E083E40E9416
S1130590E003882341F083E0089583E0089583E035
S11305A0089583E0089580E0089540E060E083E4E6
S11305B00E94E00340E061E083E40E94E00340E045
S11305C062E083E40E94E00340E063E083E40E948D
S11305D0E00308950E9452000E94DF0180E090E051
S11305E008958234A9F018F4813431F008958334E5
S11305F0D9F0843429F108952AB381E090E002C04F
S1130600880F991F6A95E2F7809582238ABB089523
S113061027B381E090E002C0880F991F6A95E2F742
S11306208095822387BB089524B381E090E002C0C3
S1130630880F991F6A95E2F78095822384BB0895F9
S113064021B381E090E002C0880F991F6A95E2F718
S11306508095822381BB08958234A1F018F48134FB
S113066031F008958334C9F0843411F108952AB324
S113067081E090E002C0880F991F6A95E2F7822B0F
S11306808ABB089527B381E090E002C0880F991FC8
S11306906A95E2F7822B87BB089524B381E090E04A
S11306A002C0880F991F6A95E2F7822B84BB0895D4
S11306B021B381E090E002C0880F991F6A95E2F7A8
S11306C0822B81BB0895683008F06EC0823419F122
S11306D018F4813439F06AC08334B1F1843409F4F4
S11306E04BC064C0411104C00E94F10280E008952F
S11306F0413009F05DC09BB321E030E0062E02C01A
S1130700220F331F0A94E2F7209529232BBB0E9462
S11307102C0380E00895411104C00E94F10280E09E
S11307200895413009F046C098B321E030E0062E28
S113073002C0220F331F0A94E2F72095292328BB15
S11307400E942C0380E00895411104C00E94F1022C
S113075080E00895413081F595B321E030E0062E24
S113076002C0220F331F0A94E2F72095292325BBE8
S11307700E942C0380E00895411104C00E94F102FC
S113078080E008954130D1F492B321E030E0062EA8
S113079002C0220F331F0A94E2F72095292322BBBB
S11307A00E942C0380E0089582E0089581E008957A
S11307B083E0089583E0089583E0089583E0089535
S11307C0683008F083C0823449F118F4813441F070
S11307D07FC0833409F440C0843409F45AC078C01B
S11307E041110DC02BB381E090E002C0880F991F26
S11307F06A95E2F7809582238BBB80E008954130AF
S113080009F068C02BB381E090E002C0880F991F03
S11308106A95E2F7822B8BBB80E0089541110DC0ED
S113082028B381E090E002C0880F991F6A95E2F72F
S11308308095822388BB80E00895413009F04CC044
S113084028B381E090E002C0880F991F6A95E2F70F
S1130850822B88BB80E0089541110DC025B381E04F
S113086090E002C0880F991F6A95E2F78095822371
S113087085BB80E00895413089F525B381E090E09F
S113088002C0880F991F6A95E2F7822B85BB80E02E
S1130890089541110DC022B381E090E002C0880F99
S11308A0991F6A95E2F78095822382BB80E00895C0
S11308B04130B1F422B381E090E002C0880F991F67
S11308C06A95E2F7822B82BB80E0089582E0089566
S11308D081E0089584E0089584E0089584E0089513
S11308E084E00895813049F018F0823059F00FC047
S11308F08BB780648BBF80E008958BB780688BBF13
S113090080E008958BB780628BBF80E0089581E01A
S1130910089578940895813069F120F0823009F4C3
S113092051C05FC0613071F028F0623099F06330DB
S1130930C9F059C085B78E7F85BF85B78D7F85BFC8
S113094080E0089585B7816085BF85B78D7F85BFB9
S113095080E0089585B78E7F85BF85B7826085BFA7
S113096080E0089585B7816085BF85B7826085BFC3
S113097080E00895613071F028F0623099F06330BE
S1130980C9F033C085B78B7F85BF85B7877F85BFA7
S113099080E0089585B7846085BF85B7877F85BF6C
S11309A080E0089585B78B7F85BF85B7886085BF54
S11309B080E0089585B7846085BF85B7886085BF6A
S11309C080E00895623019F0633031F010C084B7CC
S11309D08F7B84BF80E0089584B7806484BF80E007
S11309E0089581E0089582E0089582E0089582E008
S11309F00895813051F018F0823069F012C070937C
S1130A006A006093690080E00895709368006093C1
S1130A10670080E00895709366006093650080E04D
S1130A20089583E0089541E060E081E40E94E003DA
S1130A3040E062E081E40E94E00340E065E081E49C
S1130A400E94E00340E067E081E40E94E00308952F
S1130A501F920F920FB60F9211242F933F934F932F
S1130A605F936F937F938F939F93AF93BF93EF9312
S1130A70FF9310926400E0916900F0916A0030974E
S1130A8019F009950E941305FF91EF91BF91AF9161
S1130A909F918F917F916F915F914F913F912F9192
S1130AA00F900FBE0F901F9018951F920F920FB6C4
S1130AB00F9211242F933F934F935F936F937F93E0
S1130AC08F939F93AF93BF93EF93FF93E09167004E
S1130AD0F0916800309709F0099581E080936400F3
S1130AE0FF91EF91BF91AF919F918F917F916F9102
S1130AF05F914F913F912F910F900FBE0F901F90D8
S1130B0018951F920F920FB60F9211242F933F93B3
S1130B104F935F936F937F938F939F93AF93BF9301
S1130B20EF93FF93E0916500F0916600309709F030
S1130B300995FF91EF91BF91AF919F918F917F9113
S1130B406F915F914F913F912F910F900FBE0F9036
S1130B501F901895811108C083B78F7B83BF83B71B
S1130B60877F83BF80E00895813041F483B78F7B12
S1130B7083BF83B7886083BF80E00895823041F4E7
S1130B8083B7806483BF83B7877F83BF80E0089582
S1130B90833041F483B7806483BF83B7886083BFA5
S1130BA080E0089581E0089581110BC083B78E7FA2
S1130BB083BF83B78D7F83BF83B78B7F83BF80E081
S1130BC00895813059F483B7816083BF83B78D7FE3
S1130BD083BF83B78B7F83BF80E00895823059F44D
S1130BE083B78E7F83BF83B7826083BF83B78B7FD6
S1130BF083BF80E00895833059F483B7816083BF55
S1130C0083B7826083BF83B78B7F83BF80E00895FF
S1130C10843059F483B78E7F83BF83B78D7F83BFBE
S1130C2083B7846083BF80E00895853059F483B727
S1130C30816083BF83B78D7F83BF83B7846083BFA5
S1130C4080E00895863059F483B78E7F83BF83B7DD
S1130C50826083BF83B7846083BF80E00895873058
S1130C6059F483B7816083BF83B7826083BF83B73E
S1130C70846083BF80E0089582E008958F929F92FC
S1130C80AF92BF92CF92DF92EF92FF924B015C0141
S1130C9020E030E0A9010E94CE09181694F01EC08D
S1130CA008B600FEFDCF88B7816088BF20E030E041
S1130CB040E85FE3C701B6010E94EF076B017C01C6
S1130CC003C0C12CD12C7601A5019401C701B60142
S1130CD00E947208882324F380E02AC020E030E0D8
S1130CE0A901C501B4010E94720818169CF485E09C
S1130CF01FC008B600FEFDCF88B7816088BF20E022
S1130D0030E040E85FE3C701B6010E94EF076B01E2
S1130D107C0103C0C12CD12C760120E030E040E8F6
S1130D205FE3C701B6010E947208882314F380E0D0
S1130D30FF90EF90DF90CF90BF90AF909F908F90F7
S1130D400895CF92DF92EF92FF926B017C0120E035
S1130D5030E0A9010E947208882304F1C701B6019A
S1130D600E945B080E94E908F62E80E00E94AA0512
S1130D70811116C0F2BE85E00E94D405811112C013
S1130D8060E070E080E89FE30E943E0681110CC0A1
S1130D9013BE12BE98B7916098BF07C086E005C025
S1130DA086E003C086E001C086E0FF90EF90DF900C
S1130DB0CF900895811108C085B58F7B85BD85B519
S1130DC0877F85BD80E00895813041F485B58F7BB0
S1130DD085BD85B5886085BD80E00895823041F485
S1130DE085B5806485BD85B5877F85BD80E0089520
S1130DF0833041F485B5806485BD85B5886085BD43
S1130E0080E0089581E0089581110BC085B58E7F3F
S1130E1085BD85B58D7F85BD85B58B7F85BD80E01E
S1130E200895813059F485B5816085BD85B58D7F80
S1130E3085BD85B58B7F85BD80E00895823059F4EA
S1130E4085B58E7F85BD85B5826085BD85B58B7F73
S1130E5085BD80E00895833059F485B5816085BDF2
S1130E6085B5826085BD85B58B7F85BD80E008959D
S1130E70843059F485B58E7F85BD85B58D7F85BD5C
S1130E8085B5846085BD80E00895843059F485B5C6
S1130E90816085BD85B58D7F85BD85B5846085BD43
S1130EA080E00895853059F485B58E7F85BD85B57C
S1130EB0826085BD85B5846085BD80E008958630F7
S1130EC059F485B5816085BD85B5826085BD85B5DC
S1130ED0846085BD80E0089582E008958F3F910588
S1130EE009F018F484BD80E0089584E0089589B77A
S1130EF0806489BF80E00E94DA0681110EC080E020
S1130F0090E00E946E0781110AC081E00E940407EC
S1130F10811107C010926400089587E0089587E066
S1130F20089587E008951F920F920FB60F9211242F
S1130F304F935F936F937F938F939F93AF93BF93DD
S1130F40809164008130E9F580916B0090916C0090
S1130F50A0916D00B0916E0040916F0050917000AF
S1130F60609171007091720084179507A607B70706
S1130F7064F40196A11DB11D80936B0090936C00E5
S1130F80A0936D00B0936E001CC084179507A6074C
S1130F90B707B9F4452B462B472B99F010926B00F9
S1130FA010926C0010926D0010926E00809173008C
S1130FB0883020F48F5F8093730003C081E08093B6
S1130FC07300BF91AF919F918F917F916F915F91CA
S1130FD04F910F900FBE0F901F9018955058BB273C
S1130FE0AA270E9406080C947C090E946E0938F016
S1130FF00E94750920F039F49F3F19F426F40C94EB
S11310006B090EF4E095E7FB0C943C09E92F0E9470
S11310108D0958F3BA17620773078407950720F000
S113102079F4A6F50C94C7090EF4E0950B2EBA2FAB
S1131030A02D0B01B90190010C01CA01A0011124DA
S1131040FF27591B99F0593F50F4503E68F11A1686
S1131050F040A22F232F342F4427585FF3CF469517
S113106037952795A795F0405395C9F77EF41F1639
S1131070BA0B620B730B840BBAF09150A1F0FF0F03
S1131080BB1F661F771F881FC2F70EC0BA0F621FEF
S1131090731F841F48F4879577956795B795F795DF
S11310A09E3F08F0B0CF9395880F08F09927EE0F74
S11310B09795879508950E94AF0990F09F3748F45B
S11310C0911116F40C94C80960E070E080E89FE385
S11310D0089526F01B16611D711D811D0C94420993
S11310E00C945D090E94180908F481E008950E9497
S11310F08B080C947C090E94750958F00E946E09B3
S113110040F029F45F3F29F00C943C0951110C94F0
S1131110C8090C946B090E948D0968F39923B1F3F3
S1131120552391F3951B550BBB27AA276217730709
S1131130840738F09F5F5F4F220F331F441FAA1F9D
S1131140A9F335D00E2E3AF0E0E832D09150504059
S1131150E695001CCAF72BD0FE2F29D0660F771F07
S1131160881FBB1F261737074807AB07B0E809F0ED
S1131170BB0B802DBF01FF2793585F4F3AF09E3F72
S1131180510578F00C943C090C94C8095F3FE4F3D2
S1131190983ED4F3869577956795B795F7959F5FB5
S11311A0C9F7880F911D9695879597F90895E1E001
S11311B0660F771F881FBB1F621773078407BA0760
S11311C020F0621B730B840BBA0BEE1F88F7E095BB
S11311D008950E94950988F09F5798F0B92F992790
S11311E0B751B0F0E1F0660F771F881F991F1AF00E
S11311F0BA95C9F714C0B13091F00E94C709B1E0A3
S113120008950C94C709672F782F8827B85F39F0A1
S1131210B93FCCF3869577956795B395D9F73EF4A6
S113122090958095709561957F4F8F4F9F4F08954E
S1131230990F0008550FAA0BE0E8FEEF16161706E3
S1131240E807F907C0F012161306E407F50798F04B
S1131250621B730B840B950B39F40A2661F0232B64
S1131260242B252B21F408950A2609F4A140A695E0
S11312708FEF811D811D089597F99F6780E870E0C5
S113128060E00895882371F4772321F09850872B28
S1131290762F07C0662311F499270DC09051862B31
S11312A070E060E02AF09A95660F771F881FDAF7DE
S11312B0880F9695879597F908959F3F31F091503F
S11312C020F4879577956795B795880F911D969526
S11312D0879597F908959FEF80EC089500240A9468
S11312E01616170618060906089500240A941216FD
S11312F01306140605060895092E0394000C11F430
S1131300882352F0BB0F40F4BF2B11F460FF04C0DC
S11313106F5F7F4F8F4F9F4F089557FD9058440F35
S1131320551F59F05F3F71F04795880F97FB991F40
S113133061F09F3F79F087950895121613061406FD
S1131340551FF2CF4695F1DF08C01616170618068A
S1131350991FF1CF869571056105089408950E943F
S11313609509A0F0BEE7B91788F4BB279F3860F44D
S11313701616B11D672F782F8827985FF7CF8695AB
S113138077956795B11D93959639C8F30895E894B8
S1131390BB2766277727CB0197F908950E94180980
S11313A008F48FEF08950E94E6090C947C090E94CA
S11313B06E0938F00E94750920F0952311F00C9401
S11313C03C090C946B0911240C94C8090E948D09E2
S11313D070F3959FC1F3950F50E0551F629FF00184
S11313E0729FBB27F00DB11D639FAA27F00DB11D9D
S11313F0AA1F649F6627B00DA11D661F829F222726
S1131400B00DA11D621F739FB00DA11D621F839FAC
S1131410A00D611D221F749F3327A00D611D231F82
S1131420849F600D211D822F762F6A2F11249F57D0
S113143050409AF0F1F088234AF0EE0FFF1FBB1FD3
S1131440661F771F881F91505040A9F79E3F510592
S113145080F00C943C090C94C8095F3FE4F3983E77
S1131460D4F3869577956795B795F795E7959F5F3C
S1131470C1F7FE2B880F911D9695879597F90895CE
S1131480EE0FFF1F0590F491E02D0994F894FFCF1F
S1051490030350
S9030000FC
